{
  "_format": "hh-sol-artifact-1",
  "contractName": "Quests",
  "sourceName": "contracts/Quests.sol",
  "abi": [
    {
      "inputs": [
        {
          "internalType": "address",
          "name": "_adminAddress",
          "type": "address"
        }
      ],
      "stateMutability": "nonpayable",
      "type": "constructor"
    },
    {
      "anonymous": false,
      "inputs": [
        {
          "indexed": true,
          "internalType": "address",
          "name": "admin",
          "type": "address"
        }
      ],
      "name": "AdminLoggedIn",
      "type": "event"
    },
    {
      "anonymous": false,
      "inputs": [
        {
          "indexed": true,
          "internalType": "address",
          "name": "admin",
          "type": "address"
        }
      ],
      "name": "AdminLoggedOut",
      "type": "event"
    },
    {
      "anonymous": false,
      "inputs": [
        {
          "indexed": true,
          "internalType": "address",
          "name": "admin",
          "type": "address"
        },
        {
          "indexed": false,
          "internalType": "string",
          "name": "name",
          "type": "string"
        },
        {
          "indexed": false,
          "internalType": "string",
          "name": "ipfsImageHash",
          "type": "string"
        }
      ],
      "name": "AdminRegistered",
      "type": "event"
    },
    {
      "anonymous": false,
      "inputs": [
        {
          "indexed": true,
          "internalType": "uint256",
          "name": "questId",
          "type": "uint256"
        },
        {
          "indexed": true,
          "internalType": "address",
          "name": "user",
          "type": "address"
        }
      ],
      "name": "QuestCompleted",
      "type": "event"
    },
    {
      "anonymous": false,
      "inputs": [
        {
          "indexed": true,
          "internalType": "uint256",
          "name": "questId",
          "type": "uint256"
        },
        {
          "indexed": false,
          "internalType": "string",
          "name": "description",
          "type": "string"
        },
        {
          "indexed": false,
          "internalType": "uint256",
          "name": "points",
          "type": "uint256"
        },
        {
          "indexed": false,
          "internalType": "address",
          "name": "requiredTokenAddress",
          "type": "address"
        },
        {
          "indexed": false,
          "internalType": "uint256",
          "name": "requiredTokenAmount",
          "type": "uint256"
        }
      ],
      "name": "QuestCreated",
      "type": "event"
    },
    {
      "anonymous": false,
      "inputs": [
        {
          "indexed": true,
          "internalType": "uint256",
          "name": "questId",
          "type": "uint256"
        }
      ],
      "name": "QuestDeleted",
      "type": "event"
    },
    {
      "anonymous": false,
      "inputs": [
        {
          "indexed": true,
          "internalType": "uint256",
          "name": "questId",
          "type": "uint256"
        },
        {
          "indexed": false,
          "internalType": "string",
          "name": "description",
          "type": "string"
        },
        {
          "indexed": false,
          "internalType": "uint256",
          "name": "points",
          "type": "uint256"
        },
        {
          "indexed": false,
          "internalType": "address",
          "name": "requiredTokenAddress",
          "type": "address"
        },
        {
          "indexed": false,
          "internalType": "uint256",
          "name": "requiredTokenAmount",
          "type": "uint256"
        },
        {
          "indexed": false,
          "internalType": "bool",
          "name": "active",
          "type": "bool"
        }
      ],
      "name": "QuestUpdated",
      "type": "event"
    },
    {
      "anonymous": false,
      "inputs": [
        {
          "indexed": true,
          "internalType": "address",
          "name": "user",
          "type": "address"
        }
      ],
      "name": "UserLoggedIn",
      "type": "event"
    },
    {
      "anonymous": false,
      "inputs": [
        {
          "indexed": true,
          "internalType": "address",
          "name": "user",
          "type": "address"
        }
      ],
      "name": "UserLoggedOut",
      "type": "event"
    },
    {
      "anonymous": false,
      "inputs": [
        {
          "indexed": true,
          "internalType": "address",
          "name": "user",
          "type": "address"
        },
        {
          "indexed": false,
          "internalType": "string",
          "name": "name",
          "type": "string"
        },
        {
          "indexed": false,
          "internalType": "string",
          "name": "ipfsImageHash",
          "type": "string"
        }
      ],
      "name": "UserRegistered",
      "type": "event"
    },
    {
      "inputs": [
        {
          "internalType": "uint256",
          "name": "questId",
          "type": "uint256"
        }
      ],
      "name": "canSolveQuest",
      "outputs": [
        {
          "internalType": "bool",
          "name": "",
          "type": "bool"
        }
      ],
      "stateMutability": "view",
      "type": "function"
    },
    {
      "inputs": [
        {
          "internalType": "address",
          "name": "_address",
          "type": "address"
        }
      ],
      "name": "checkIsAdminLogged",
      "outputs": [
        {
          "internalType": "bool",
          "name": "",
          "type": "bool"
        },
        {
          "internalType": "string",
          "name": "",
          "type": "string"
        }
      ],
      "stateMutability": "view",
      "type": "function"
    },
    {
      "inputs": [
        {
          "internalType": "address",
          "name": "_address",
          "type": "address"
        }
      ],
      "name": "checkIsUserLogged",
      "outputs": [
        {
          "internalType": "bool",
          "name": "",
          "type": "bool"
        },
        {
          "internalType": "string",
          "name": "",
          "type": "string"
        }
      ],
      "stateMutability": "view",
      "type": "function"
    },
    {
      "inputs": [
        {
          "internalType": "uint256",
          "name": "questId",
          "type": "uint256"
        }
      ],
      "name": "completeQuest",
      "outputs": [],
      "stateMutability": "nonpayable",
      "type": "function"
    },
    {
      "inputs": [
        {
          "internalType": "string",
          "name": "description",
          "type": "string"
        },
        {
          "internalType": "uint256",
          "name": "points",
          "type": "uint256"
        },
        {
          "internalType": "address",
          "name": "requiredTokenAddress",
          "type": "address"
        },
        {
          "internalType": "uint256",
          "name": "requiredTokenAmount",
          "type": "uint256"
        }
      ],
      "name": "createQuest",
      "outputs": [],
      "stateMutability": "nonpayable",
      "type": "function"
    },
    {
      "inputs": [
        {
          "internalType": "uint256",
          "name": "questId",
          "type": "uint256"
        }
      ],
      "name": "deleteQuest",
      "outputs": [],
      "stateMutability": "nonpayable",
      "type": "function"
    },
    {
      "inputs": [],
      "name": "eggsAddress",
      "outputs": [
        {
          "internalType": "address",
          "name": "",
          "type": "address"
        }
      ],
      "stateMutability": "view",
      "type": "function"
    },
    {
      "inputs": [
        {
          "internalType": "address",
          "name": "_address",
          "type": "address"
        }
      ],
      "name": "getAdminBalance",
      "outputs": [
        {
          "internalType": "uint256",
          "name": "",
          "type": "uint256"
        }
      ],
      "stateMutability": "view",
      "type": "function"
    },
    {
      "inputs": [],
      "name": "getTop10Players",
      "outputs": [
        {
          "components": [
            {
              "internalType": "address",
              "name": "user",
              "type": "address"
            },
            {
              "internalType": "uint256",
              "name": "points",
              "type": "uint256"
            }
          ],
          "internalType": "struct Quests.Player[]",
          "name": "",
          "type": "tuple[]"
        }
      ],
      "stateMutability": "view",
      "type": "function"
    },
    {
      "inputs": [],
      "name": "iotabotsAddress",
      "outputs": [
        {
          "internalType": "address",
          "name": "",
          "type": "address"
        }
      ],
      "stateMutability": "view",
      "type": "function"
    },
    {
      "inputs": [
        {
          "internalType": "uint256",
          "name": "",
          "type": "uint256"
        }
      ],
      "name": "leaderboard",
      "outputs": [
        {
          "internalType": "address",
          "name": "user",
          "type": "address"
        },
        {
          "internalType": "uint256",
          "name": "points",
          "type": "uint256"
        }
      ],
      "stateMutability": "view",
      "type": "function"
    },
    {
      "inputs": [
        {
          "internalType": "address",
          "name": "_address",
          "type": "address"
        },
        {
          "internalType": "string",
          "name": "_password",
          "type": "string"
        }
      ],
      "name": "loginAdmin",
      "outputs": [
        {
          "internalType": "bool",
          "name": "",
          "type": "bool"
        }
      ],
      "stateMutability": "nonpayable",
      "type": "function"
    },
    {
      "inputs": [
        {
          "internalType": "address",
          "name": "_address",
          "type": "address"
        },
        {
          "internalType": "string",
          "name": "_password",
          "type": "string"
        }
      ],
      "name": "loginUser",
      "outputs": [
        {
          "internalType": "bool",
          "name": "",
          "type": "bool"
        }
      ],
      "stateMutability": "nonpayable",
      "type": "function"
    },
    {
      "inputs": [
        {
          "internalType": "address",
          "name": "_address",
          "type": "address"
        }
      ],
      "name": "logoutAdmin",
      "outputs": [],
      "stateMutability": "nonpayable",
      "type": "function"
    },
    {
      "inputs": [
        {
          "internalType": "address",
          "name": "_address",
          "type": "address"
        }
      ],
      "name": "logoutUser",
      "outputs": [],
      "stateMutability": "nonpayable",
      "type": "function"
    },
    {
      "inputs": [],
      "name": "nextQuestId",
      "outputs": [
        {
          "internalType": "uint256",
          "name": "",
          "type": "uint256"
        }
      ],
      "stateMutability": "view",
      "type": "function"
    },
    {
      "inputs": [
        {
          "internalType": "uint256",
          "name": "",
          "type": "uint256"
        }
      ],
      "name": "quests",
      "outputs": [
        {
          "internalType": "uint256",
          "name": "id",
          "type": "uint256"
        },
        {
          "internalType": "string",
          "name": "description",
          "type": "string"
        },
        {
          "internalType": "uint256",
          "name": "points",
          "type": "uint256"
        },
        {
          "internalType": "address",
          "name": "requiredTokenAddress",
          "type": "address"
        },
        {
          "internalType": "uint256",
          "name": "requiredTokenAmount",
          "type": "uint256"
        },
        {
          "internalType": "bool",
          "name": "active",
          "type": "bool"
        }
      ],
      "stateMutability": "view",
      "type": "function"
    },
    {
      "inputs": [
        {
          "internalType": "address",
          "name": "_address",
          "type": "address"
        },
        {
          "internalType": "string",
          "name": "_name",
          "type": "string"
        },
        {
          "internalType": "string",
          "name": "_password",
          "type": "string"
        },
        {
          "internalType": "string",
          "name": "_ipfsImageHash",
          "type": "string"
        }
      ],
      "name": "registerAdmin",
      "outputs": [
        {
          "internalType": "bool",
          "name": "",
          "type": "bool"
        }
      ],
      "stateMutability": "nonpayable",
      "type": "function"
    },
    {
      "inputs": [
        {
          "internalType": "address",
          "name": "_address",
          "type": "address"
        },
        {
          "internalType": "string",
          "name": "_name",
          "type": "string"
        },
        {
          "internalType": "string",
          "name": "_password",
          "type": "string"
        },
        {
          "internalType": "string",
          "name": "_ipfsImageHash",
          "type": "string"
        }
      ],
      "name": "registerUser",
      "outputs": [
        {
          "internalType": "bool",
          "name": "",
          "type": "bool"
        }
      ],
      "stateMutability": "nonpayable",
      "type": "function"
    },
    {
      "inputs": [
        {
          "internalType": "uint256",
          "name": "questId",
          "type": "uint256"
        },
        {
          "internalType": "string",
          "name": "description",
          "type": "string"
        },
        {
          "internalType": "uint256",
          "name": "points",
          "type": "uint256"
        },
        {
          "internalType": "address",
          "name": "requiredTokenAddress",
          "type": "address"
        },
        {
          "internalType": "uint256",
          "name": "requiredTokenAmount",
          "type": "uint256"
        },
        {
          "internalType": "bool",
          "name": "active",
          "type": "bool"
        }
      ],
      "name": "updateQuest",
      "outputs": [],
      "stateMutability": "nonpayable",
      "type": "function"
    },
    {
      "inputs": [
        {
          "internalType": "address",
          "name": "",
          "type": "address"
        }
      ],
      "name": "userPoints",
      "outputs": [
        {
          "internalType": "uint256",
          "name": "",
          "type": "uint256"
        }
      ],
      "stateMutability": "view",
      "type": "function"
    },
    {
      "inputs": [
        {
          "internalType": "address",
          "name": "",
          "type": "address"
        },
        {
          "internalType": "uint256",
          "name": "",
          "type": "uint256"
        }
      ],
      "name": "userQuestCompletion",
      "outputs": [
        {
          "internalType": "bool",
          "name": "",
          "type": "bool"
        }
      ],
      "stateMutability": "view",
      "type": "function"
    }
  ],
  "bytecode": "0x60806040523480156200001157600080fd5b5060405162002d7038038062002d70833981810160405281019062000037919062000096565b80600960006101000a81548173ffffffffffffffffffffffffffffffffffffffff021916908373ffffffffffffffffffffffffffffffffffffffff160217905550506200011b565b600081519050620000908162000101565b92915050565b600060208284031215620000af57620000ae620000fc565b5b6000620000bf848285016200007f565b91505092915050565b6000620000d582620000dc565b9050919050565b600073ffffffffffffffffffffffffffffffffffffffff82169050919050565b600080fd5b6200010c81620000c8565b81146200011857600080fd5b50565b612c45806200012b6000396000f3fe608060405234801561001057600080fd5b50600436106101425760003560e01c8063645cf80f116100b8578063bf3683991161007c578063bf3683991461039b578063d638c983146103cc578063e085f980146103ea578063ebd1a7351461041f578063f50ddbc71461044f578063fe69c2961461047f57610142565b8063645cf80f146102e45780638c9e36ab1461030057806395b313051461031e57806398711c171461033a5780639f60fabc1461036b57610142565b8063297f7b391161010a578063297f7b39146101fb578063434917af1461022c5780634b1917321461025c578063528be0a91461028c57806358fe2796146102a85780635f7018eb146102c657610142565b806303bdb46b1461014757806309df5060146101775780630f7deff314610193578063103d36b8146101af578063128c9f01146101cb575b600080fd5b610161600480360381019061015c919061201c565b6104af565b60405161016e91906125f2565b60405180910390f35b610191600480360381019061018c9190611fef565b610645565b005b6101ad60048036038101906101a89190612173565b6106e6565b005b6101c960048036038101906101c491906121f6565b6108a0565b005b6101e560048036038101906101e09190611fef565b6109fb565b6040516101f2919061279a565b60405180910390f35b61021560048036038101906102109190611fef565b610a7e565b60405161022392919061260d565b60405180910390f35b6102466004803603810190610241919061201c565b610ba9565b60405161025391906125f2565b60405180910390f35b610276600480360381019061027191906121f6565b610cfd565b60405161028391906125f2565b60405180910390f35b6102a660048036038101906102a191906121f6565b610f0d565b005b6102b06111d1565b6040516102bd919061258c565b60405180910390f35b6102ce6111f7565b6040516102db91906125d0565b60405180910390f35b6102fe60048036038101906102f99190611fef565b6112b6565b005b610308611314565b604051610315919061258c565b60405180910390f35b61033860048036038101906103339190612250565b61133a565b005b610354600480360381019061034f9190611fef565b611518565b60405161036292919061260d565b60405180910390f35b61038560048036038101906103809190612078565b611643565b60405161039291906125f2565b60405180910390f35b6103b560048036038101906103b091906121f6565b611927565b6040516103c39291906125a7565b60405180910390f35b6103d461197b565b6040516103e1919061279a565b60405180910390f35b61040460048036038101906103ff91906121f6565b611981565b604051610416969594939291906127b5565b60405180910390f35b61043960048036038101906104349190612133565b611a72565b60405161044691906125f2565b60405180910390f35b61046960048036038101906104649190611fef565b611aa1565b604051610476919061279a565b60405180910390f35b61049960048036038101906104949190612078565b611ab9565b6040516104a691906125f2565b60405180910390f35b6000816040516020016104c2919061255e565b60405160208183030381529060405280519060200120600160008573ffffffffffffffffffffffffffffffffffffffff1673ffffffffffffffffffffffffffffffffffffffff16815260200190815260200160002060020160405160200161052a9190612575565b60405160208183030381529060405280519060200120141561063a5760018060008573ffffffffffffffffffffffffffffffffffffffff1673ffffffffffffffffffffffffffffffffffffffff16815260200190815260200160002060040160006101000a81548160ff0219169083151502179055508273ffffffffffffffffffffffffffffffffffffffff167f8d15fde878cff665868ed7579eb5081db6508d4249df61dcdd7699a5301d987460405160405180910390a2600160008473ffffffffffffffffffffffffffffffffffffffff1673ffffffffffffffffffffffffffffffffffffffff16815260200190815260200160002060040160009054906101000a900460ff16905061063f565b600090505b92915050565b6000600160008373ffffffffffffffffffffffffffffffffffffffff1673ffffffffffffffffffffffffffffffffffffffff16815260200190815260200160002060040160006101000a81548160ff0219169083151502179055508073ffffffffffffffffffffffffffffffffffffffff167fc6ef449222bae3754898fc5fa944d52dfc53c0ee1fdd7d733fbb422ac5e2b8c860405160405180910390a250565b600960009054906101000a900473ffffffffffffffffffffffffffffffffffffffff1673ffffffffffffffffffffffffffffffffffffffff163373ffffffffffffffffffffffffffffffffffffffff161461074057600080fd5b6040518060c0016040528060065481526020018581526020018481526020018373ffffffffffffffffffffffffffffffffffffffff168152602001828152602001600115158152506005600060065481526020019081526020016000206000820151816000015560208201518160010190805190602001906107c3929190611e48565b506040820151816002015560608201518160030160006101000a81548173ffffffffffffffffffffffffffffffffffffffff021916908373ffffffffffffffffffffffffffffffffffffffff1602179055506080820151816004015560a08201518160050160006101000a81548160ff0219169083151502179055509050506006547fd4fd88f33e2abba15398dd5bfe385c39dedd6767e705e9f651be4d681b4cf5648585858560405161087a9493929190612674565b60405180910390a26006600081548092919061089590612a2b565b919050555050505050565b600960009054906101000a900473ffffffffffffffffffffffffffffffffffffffff1673ffffffffffffffffffffffffffffffffffffffff163373ffffffffffffffffffffffffffffffffffffffff16146108fa57600080fd5b80600560008381526020019081526020016000206000015414610952576040517f08c379a00000000000000000000000000000000000000000000000000000000081526004016109499061273a565b60405180910390fd5b6005600082815260200190815260200160002060008082016000905560018201600061097e9190611ece565b60028201600090556003820160006101000a81549073ffffffffffffffffffffffffffffffffffffffff021916905560048201600090556005820160006101000a81549060ff02191690555050807fcbe2e2b576d488acbd141580ea0928b24300831852f56c7eb39330a9a35e1e6d60405160405180910390a250565b6000600760008373ffffffffffffffffffffffffffffffffffffffff1673ffffffffffffffffffffffffffffffffffffffff16815260200190815260200160002060000160009054906101000a900473ffffffffffffffffffffffffffffffffffffffff1673ffffffffffffffffffffffffffffffffffffffff16319050919050565b60006060600160008473ffffffffffffffffffffffffffffffffffffffff1673ffffffffffffffffffffffffffffffffffffffff16815260200190815260200160002060040160009054906101000a900460ff16600160008573ffffffffffffffffffffffffffffffffffffffff1673ffffffffffffffffffffffffffffffffffffffff168152602001908152602001600020600301808054610b20906129c8565b80601f0160208091040260200160405190810160405280929190818152602001828054610b4c906129c8565b8015610b995780601f10610b6e57610100808354040283529160200191610b99565b820191906000526020600020905b815481529060010190602001808311610b7c57829003601f168201915b5050505050905091509150915091565b600081604051602001610bbc919061255e565b60405160208183030381529060405280519060200120600760008573ffffffffffffffffffffffffffffffffffffffff1673ffffffffffffffffffffffffffffffffffffffff168152602001908152602001600020600201604051602001610c249190612575565b604051602081830303815290604052805190602001201415610cf2576001600760008573ffffffffffffffffffffffffffffffffffffffff1673ffffffffffffffffffffffffffffffffffffffff16815260200190815260200160002060040160006101000a81548160ff021916908315150217905550600760008473ffffffffffffffffffffffffffffffffffffffff1673ffffffffffffffffffffffffffffffffffffffff16815260200190815260200160002060040160009054906101000a900460ff169050610cf7565b600090505b92915050565b6000806005600084815260200190815260200160002090508060050160009054906101000a900460ff16610d66576040517f08c379a0000000000000000000000000000000000000000000000000000000008152600401610d5d9061275a565b60405180910390fd5b600860003373ffffffffffffffffffffffffffffffffffffffff1673ffffffffffffffffffffffffffffffffffffffff168152602001908152602001600020600084815260200190815260200160002060009054906101000a900460ff1615610e04576040517f08c379a0000000000000000000000000000000000000000000000000000000008152600401610dfb9061271a565b60405180910390fd5b60008160030160009054906101000a900473ffffffffffffffffffffffffffffffffffffffff16905060008173ffffffffffffffffffffffffffffffffffffffff166370a08231336040518263ffffffff1660e01b8152600401610e68919061258c565b60206040518083038186803b158015610e8057600080fd5b505afa158015610e94573d6000803e3d6000fd5b505050506040513d601f19601f82011682018060405250810190610eb89190612223565b90508260040154811015610f01576040517f08c379a0000000000000000000000000000000000000000000000000000000008152600401610ef89061277a565b60405180910390fd5b60019350505050919050565b60006005600083815260200190815260200160002090508060050160009054906101000a900460ff16610f75576040517f08c379a0000000000000000000000000000000000000000000000000000000008152600401610f6c9061275a565b60405180910390fd5b600860003373ffffffffffffffffffffffffffffffffffffffff1673ffffffffffffffffffffffffffffffffffffffff168152602001908152602001600020600083815260200190815260200160002060009054906101000a900460ff1615611013576040517f08c379a000000000000000000000000000000000000000000000000000000000815260040161100a9061271a565b60405180910390fd5b60008160030160009054906101000a900473ffffffffffffffffffffffffffffffffffffffff16905060008173ffffffffffffffffffffffffffffffffffffffff166370a08231336040518263ffffffff1660e01b8152600401611077919061258c565b60206040518083038186803b15801561108f57600080fd5b505afa1580156110a3573d6000803e3d6000fd5b505050506040513d601f19601f820116820180604052508101906110c79190612223565b90508260040154811015611110576040517f08c379a00000000000000000000000000000000000000000000000000000000081526004016111079061277a565b60405180910390fd5b61111e338460020154611dee565b6001600860003373ffffffffffffffffffffffffffffffffffffffff1673ffffffffffffffffffffffffffffffffffffffff168152602001908152602001600020600086815260200190815260200160002060006101000a81548160ff0219169083151502179055503373ffffffffffffffffffffffffffffffffffffffff16847f1f830b1eb1d06c99fa9684f55e907da9251648000c05474005094c53869dbf6060405160405180910390a350505050565b600360009054906101000a900473ffffffffffffffffffffffffffffffffffffffff1681565b60606000805480602002602001604051908101604052809291908181526020016000905b828210156112ad57838290600052602060002090600202016040518060400160405290816000820160009054906101000a900473ffffffffffffffffffffffffffffffffffffffff1673ffffffffffffffffffffffffffffffffffffffff1673ffffffffffffffffffffffffffffffffffffffff1681526020016001820154815250508152602001906001019061121b565b50505050905090565b6000600760008373ffffffffffffffffffffffffffffffffffffffff1673ffffffffffffffffffffffffffffffffffffffff16815260200190815260200160002060040160006101000a81548160ff02191690831515021790555050565b600460009054906101000a900473ffffffffffffffffffffffffffffffffffffffff1681565b600960009054906101000a900473ffffffffffffffffffffffffffffffffffffffff1673ffffffffffffffffffffffffffffffffffffffff163373ffffffffffffffffffffffffffffffffffffffff161461139457600080fd5b856005600088815260200190815260200160002060000154146113ec576040517f08c379a00000000000000000000000000000000000000000000000000000000081526004016113e39061273a565b60405180910390fd5b84600560008881526020019081526020016000206001019080519060200190611416929190611e48565b50836005600088815260200190815260200160002060020181905550826005600088815260200190815260200160002060030160006101000a81548173ffffffffffffffffffffffffffffffffffffffff021916908373ffffffffffffffffffffffffffffffffffffffff160217905550816005600088815260200190815260200160002060040181905550806005600088815260200190815260200160002060050160006101000a81548160ff021916908315150217905550857f823dc2f5abe16138e75299673ed6c5cc31d72a0bec072c1a20f8312ddc9ebcbb86868686866040516115089594939291906126c0565b60405180910390a2505050505050565b60006060600760008473ffffffffffffffffffffffffffffffffffffffff1673ffffffffffffffffffffffffffffffffffffffff16815260200190815260200160002060040160009054906101000a900460ff16600760008573ffffffffffffffffffffffffffffffffffffffff1673ffffffffffffffffffffffffffffffffffffffff1681526020019081526020016000206003018080546115ba906129c8565b80601f01602080910402602001604051908101604052809291908181526020018280546115e6906129c8565b80156116335780601f1061160857610100808354040283529160200191611633565b820191906000526020600020905b81548152906001019060200180831161161657829003601f168201915b5050505050905091509150915091565b6000600960009054906101000a900473ffffffffffffffffffffffffffffffffffffffff1673ffffffffffffffffffffffffffffffffffffffff163373ffffffffffffffffffffffffffffffffffffffff161461169f57600080fd5b3373ffffffffffffffffffffffffffffffffffffffff16600760008773ffffffffffffffffffffffffffffffffffffffff1673ffffffffffffffffffffffffffffffffffffffff16815260200190815260200160002060000160009054906101000a900473ffffffffffffffffffffffffffffffffffffffff1673ffffffffffffffffffffffffffffffffffffffff16141561173a57600080fd5b84600760008773ffffffffffffffffffffffffffffffffffffffff1673ffffffffffffffffffffffffffffffffffffffff16815260200190815260200160002060000160006101000a81548173ffffffffffffffffffffffffffffffffffffffff021916908373ffffffffffffffffffffffffffffffffffffffff16021790555083600760008773ffffffffffffffffffffffffffffffffffffffff1673ffffffffffffffffffffffffffffffffffffffff1681526020019081526020016000206001019080519060200190611811929190611e48565b5082600760008773ffffffffffffffffffffffffffffffffffffffff1673ffffffffffffffffffffffffffffffffffffffff1681526020019081526020016000206002019080519060200190611868929190611e48565b5081600760008773ffffffffffffffffffffffffffffffffffffffff1673ffffffffffffffffffffffffffffffffffffffff16815260200190815260200160002060030190805190602001906118bf929190611e48565b506000600760008773ffffffffffffffffffffffffffffffffffffffff1673ffffffffffffffffffffffffffffffffffffffff16815260200190815260200160002060040160006101000a81548160ff02191690831515021790555060019050949350505050565b6000818154811061193757600080fd5b90600052602060002090600202016000915090508060000160009054906101000a900473ffffffffffffffffffffffffffffffffffffffff16908060010154905082565b60065481565b60056020528060005260406000206000915090508060000154908060010180546119aa906129c8565b80601f01602080910402602001604051908101604052809291908181526020018280546119d6906129c8565b8015611a235780601f106119f857610100808354040283529160200191611a23565b820191906000526020600020905b815481529060010190602001808311611a0657829003601f168201915b5050505050908060020154908060030160009054906101000a900473ffffffffffffffffffffffffffffffffffffffff16908060040154908060050160009054906101000a900460ff16905086565b60086020528160005260406000206020528060005260406000206000915091509054906101000a900460ff1681565b60026020528060005260406000206000915090505481565b6000600960009054906101000a900473ffffffffffffffffffffffffffffffffffffffff1673ffffffffffffffffffffffffffffffffffffffff163373ffffffffffffffffffffffffffffffffffffffff161415611b1657600080fd5b3373ffffffffffffffffffffffffffffffffffffffff16600160008773ffffffffffffffffffffffffffffffffffffffff1673ffffffffffffffffffffffffffffffffffffffff16815260200190815260200160002060000160009054906101000a900473ffffffffffffffffffffffffffffffffffffffff1673ffffffffffffffffffffffffffffffffffffffff161415611bb157600080fd5b84600160008773ffffffffffffffffffffffffffffffffffffffff1673ffffffffffffffffffffffffffffffffffffffff16815260200190815260200160002060000160006101000a81548173ffffffffffffffffffffffffffffffffffffffff021916908373ffffffffffffffffffffffffffffffffffffffff16021790555083600160008773ffffffffffffffffffffffffffffffffffffffff1673ffffffffffffffffffffffffffffffffffffffff1681526020019081526020016000206001019080519060200190611c88929190611e48565b5082600160008773ffffffffffffffffffffffffffffffffffffffff1673ffffffffffffffffffffffffffffffffffffffff1681526020019081526020016000206002019080519060200190611cdf929190611e48565b5081600160008773ffffffffffffffffffffffffffffffffffffffff1673ffffffffffffffffffffffffffffffffffffffff1681526020019081526020016000206003019080519060200190611d36929190611e48565b506000600160008773ffffffffffffffffffffffffffffffffffffffff1673ffffffffffffffffffffffffffffffffffffffff16815260200190815260200160002060040160006101000a81548160ff0219169083151502179055508473ffffffffffffffffffffffffffffffffffffffff167f92822564bab8864c3a47b34e8d23fbce5c46234eb5da261f94087b995ac0f33b8584604051611dda92919061263d565b60405180910390a260019050949350505050565b80600260008473ffffffffffffffffffffffffffffffffffffffff1673ffffffffffffffffffffffffffffffffffffffff1681526020019081526020016000206000828254611e3d91906128e8565b925050819055505050565b828054611e54906129c8565b90600052602060002090601f016020900481019282611e765760008555611ebd565b82601f10611e8f57805160ff1916838001178555611ebd565b82800160010185558215611ebd579182015b82811115611ebc578251825591602001919060010190611ea1565b5b509050611eca9190611f0e565b5090565b508054611eda906129c8565b6000825580601f10611eec5750611f0b565b601f016020900490600052602060002090810190611f0a9190611f0e565b5b50565b5b80821115611f27576000816000905550600101611f0f565b5090565b6000611f3e611f3984612842565b61281d565b905082815260208101848484011115611f5a57611f59612b06565b5b611f65848285612986565b509392505050565b600081359050611f7c81612bca565b92915050565b600081359050611f9181612be1565b92915050565b600082601f830112611fac57611fab612b01565b5b8135611fbc848260208601611f2b565b91505092915050565b600081359050611fd481612bf8565b92915050565b600081519050611fe981612bf8565b92915050565b60006020828403121561200557612004612b10565b5b600061201384828501611f6d565b91505092915050565b6000806040838503121561203357612032612b10565b5b600061204185828601611f6d565b925050602083013567ffffffffffffffff81111561206257612061612b0b565b5b61206e85828601611f97565b9150509250929050565b6000806000806080858703121561209257612091612b10565b5b60006120a087828801611f6d565b945050602085013567ffffffffffffffff8111156120c1576120c0612b0b565b5b6120cd87828801611f97565b935050604085013567ffffffffffffffff8111156120ee576120ed612b0b565b5b6120fa87828801611f97565b925050606085013567ffffffffffffffff81111561211b5761211a612b0b565b5b61212787828801611f97565b91505092959194509250565b6000806040838503121561214a57612149612b10565b5b600061215885828601611f6d565b925050602061216985828601611fc5565b9150509250929050565b6000806000806080858703121561218d5761218c612b10565b5b600085013567ffffffffffffffff8111156121ab576121aa612b0b565b5b6121b787828801611f97565b94505060206121c887828801611fc5565b93505060406121d987828801611f6d565b92505060606121ea87828801611fc5565b91505092959194509250565b60006020828403121561220c5761220b612b10565b5b600061221a84828501611fc5565b91505092915050565b60006020828403121561223957612238612b10565b5b600061224784828501611fda565b91505092915050565b60008060008060008060c0878903121561226d5761226c612b10565b5b600061227b89828a01611fc5565b965050602087013567ffffffffffffffff81111561229c5761229b612b0b565b5b6122a889828a01611f97565b95505060406122b989828a01611fc5565b94505060606122ca89828a01611f6d565b93505060806122db89828a01611fc5565b92505060a06122ec89828a01611f82565b9150509295509295509295565b60006123058383612511565b60408301905092915050565b61231a8161293e565b82525050565b6123298161293e565b82525050565b600061233a82612898565b61234481856128bb565b935061234f83612873565b8060005b8381101561238057815161236788826122f9565b9750612372836128ae565b925050600181019050612353565b5085935050505092915050565b61239681612950565b82525050565b60006123a7826128a3565b6123b181856128cc565b93506123c1818560208601612995565b6123ca81612b15565b840191505092915050565b60006123e0826128a3565b6123ea81856128dd565b93506123fa818560208601612995565b80840191505092915050565b60008154612413816129c8565b61241d81866128dd565b9450600182166000811461243857600181146124495761247c565b60ff1983168652818601935061247c565b61245285612883565b60005b8381101561247457815481890152600182019150602081019050612455565b838801955050505b50505092915050565b60006124926017836128cc565b915061249d82612b26565b602082019050919050565b60006124b56014836128cc565b91506124c082612b4f565b602082019050919050565b60006124d86013836128cc565b91506124e382612b78565b602082019050919050565b60006124fb601a836128cc565b915061250682612ba1565b602082019050919050565b6040820160008201516125276000850182612311565b50602082015161253a6020850182612540565b50505050565b6125498161297c565b82525050565b6125588161297c565b82525050565b600061256a82846123d5565b915081905092915050565b60006125818284612406565b915081905092915050565b60006020820190506125a16000830184612320565b92915050565b60006040820190506125bc6000830185612320565b6125c9602083018461254f565b9392505050565b600060208201905081810360008301526125ea818461232f565b905092915050565b6000602082019050612607600083018461238d565b92915050565b6000604082019050612622600083018561238d565b8181036020830152612634818461239c565b90509392505050565b60006040820190508181036000830152612657818561239c565b9050818103602083015261266b818461239c565b90509392505050565b6000608082019050818103600083015261268e818761239c565b905061269d602083018661254f565b6126aa6040830185612320565b6126b7606083018461254f565b95945050505050565b600060a08201905081810360008301526126da818861239c565b90506126e9602083018761254f565b6126f66040830186612320565b612703606083018561254f565b612710608083018461238d565b9695505050505050565b6000602082019050818103600083015261273381612485565b9050919050565b60006020820190508181036000830152612753816124a8565b9050919050565b60006020820190508181036000830152612773816124cb565b9050919050565b60006020820190508181036000830152612793816124ee565b9050919050565b60006020820190506127af600083018461254f565b92915050565b600060c0820190506127ca600083018961254f565b81810360208301526127dc818861239c565b90506127eb604083018761254f565b6127f86060830186612320565b612805608083018561254f565b61281260a083018461238d565b979650505050505050565b6000612827612838565b905061283382826129fa565b919050565b6000604051905090565b600067ffffffffffffffff82111561285d5761285c612ad2565b5b61286682612b15565b9050602081019050919050565b6000819050602082019050919050565b60008190508160005260206000209050919050565b600081519050919050565b600081519050919050565b6000602082019050919050565b600082825260208201905092915050565b600082825260208201905092915050565b600081905092915050565b60006128f38261297c565b91506128fe8361297c565b9250827fffffffffffffffffffffffffffffffffffffffffffffffffffffffffffffffff0382111561293357612932612a74565b5b828201905092915050565b60006129498261295c565b9050919050565b60008115159050919050565b600073ffffffffffffffffffffffffffffffffffffffff82169050919050565b6000819050919050565b82818337600083830152505050565b60005b838110156129b3578082015181840152602081019050612998565b838111156129c2576000848401525b50505050565b600060028204905060018216806129e057607f821691505b602082108114156129f4576129f3612aa3565b5b50919050565b612a0382612b15565b810181811067ffffffffffffffff82111715612a2257612a21612ad2565b5b80604052505050565b6000612a368261297c565b91507fffffffffffffffffffffffffffffffffffffffffffffffffffffffffffffffff821415612a6957612a68612a74565b5b600182019050919050565b7f4e487b7100000000000000000000000000000000000000000000000000000000600052601160045260246000fd5b7f4e487b7100000000000000000000000000000000000000000000000000000000600052602260045260246000fd5b7f4e487b7100000000000000000000000000000000000000000000000000000000600052604160045260246000fd5b600080fd5b600080fd5b600080fd5b600080fd5b6000601f19601f8301169050919050565b7f517565737420616c726561647920636f6d706c65746564000000000000000000600082015250565b7f517565737420646f6573206e6f74206578697374000000000000000000000000600082015250565b7f5175657374206973206e6f742061637469766500000000000000000000000000600082015250565b7f496e73756666696369656e7420746f6b656e2062616c616e6365000000000000600082015250565b612bd38161293e565b8114612bde57600080fd5b50565b612bea81612950565b8114612bf557600080fd5b50565b612c018161297c565b8114612c0c57600080fd5b5056fea26469706673582212209ee8f7ea751e52711cfc93a77c50b0d78939fb4e39be18b1a9ab1b6f6c3f1e2a64736f6c63430008070033",
  "linkReferences": {},
  "deployedLinkReferences": {}
}